:020000040800F2
:10000000F80700209D010008FB260008C522000813
:10001000F92600083D070008BD2F00080000000079
:100020000000000000000000000000003927000868
:10003000F508000800000000FD26000885270008DC
:10004000B7010008B7010008B7010008B7010008B0
:10005000B7010008B7010008B7010008B7010008A0
:10006000B7010008B7010008B7010008B701000890
:10007000B7010008B7010008B7010008B701000880
:100080003908000845080008B7010008B701000852
:10009000B7010008B7010008B7010008B701000860
:1000A0002D280008B7010008B7010008B7010008B3
:1000B000B7010008B7010008B7010008B701000840
:1000C000B7010008B7010008B7010008B701000830
:1000D000B7010008B7010008B12F0008B7010008F8
:1000E000B7010008B7010008B7010008B701000810
:1000F000B7010008B7010008B7010008B701000800
:10010000B7010008B7010008B7010008B7010008EF
:10011000B7010008B7010008B7010008B7010008DF
:10012000B7010008B7010008B7010008B7010008CF
:10013000B7010008B7010008B7010008B7010008BF
:10014000B7010008B7010008B7010008B7010008AF
:10015000B7010008B7010008B7010008B70100089F
:10016000B7010008B7010008B7010008B70100088F
:10017000B7010008B7010008B7010008000000003F
:10018000B7010008B7010008DFF80CD000F0C4FA8E
:1001900000480047BD330008F807002006488047A4
:1001A00006480047FEE7FEE7FEE7FEE7FEE7FEE75C
:1001B000FEE7FEE7FEE7FEE71D28000889010008CC
:1001C0002DE9F05F0546002092469B46884606468C
:1001D000814640241BE0284641464746224600F01F
:1001E0001CFA53465A46C01A914110D3114618467C
:1001F000224600F003FA2D1A67EB01084F4622460B
:100200000120002100F0FAF917EB00094E41201EF1
:10021000A4F10104DFDC484631462A464346BDE8E6
:10022000F09FD2B201E000F8012B491EFBD27047CB
:100230000022F6E710B513460A4604461946FFF7B2
:10024000F0FF204610BD2DE9FE4F804681EA0300F5
:10025000C00F0C46009021F0004123F00045B8EBA0
:100260000200A94105D24046214690461C460B4655
:10027000024623F00040104347D0270DC7F30A0081
:10028000C3F30A510290401A019040286BDAC3F37D
:10029000130040F4801B0098924620B10023D2EB5B
:1002A000030A63EB0B0B01985946C0F1400250461C
:1002B00000F0A4F906460D4650465946019A00F052
:1002C000BCF910EB08006141002487EA115284EA6E
:1002D000E7731A4340D0009A62B3019A012A4FEAA9
:1002E000075215DC001B61EB02014FF0004202EAED
:1002F0000752CDE90042001C41F5801132462B46E1
:1003000000F0BCF903B0BDE8F08F40462146F9E7A4
:10031000001B61EB0201001C41F5801300185B41DA
:100320002018A2F5001747EB030140EAD570B61973
:100330006D4111E06D084FEA360645EAC0754FEA97
:100340000752001B61EB0201001C41F580114908B6
:100350004FEA30000019514132462B4603B0BDE848
:10036000F04F00F07CB90098012240000023D0EB50
:10037000020263EBE073009821464FEAE074B8EBA9
:10038000000061EB0401E9E783F000435BE781F0E3
:10039000004158E72DE9FE4F81EA030404F00044D0
:1003A00021F0004100944FF0000B23F0004350EA8D
:1003B00001045ED052EA03045BD0C3F30A54C1F3D4
:1003C0000A552C44A4F2F3340194A0FB0254C1F367
:1003D000130141F48011C3F3130343F4801301FBB1
:1003E000024400FB034E840A970A44EA815447EA18
:1003F0008357A4FB076802958D0A05FB07854FEA22
:10040000932C04FB0C542705029D4FEA065847EA3B
:100410001637B5EB08056EEB070C870E920E47EA10
:10042000811742EA8312A7FB0201B6EB0B0164EBD2
:1004300000042B0D43EA0C335E1844EB1C50DA46E3
:100440005146E7FB0201C5F313044FEA0B3343EABD
:1004500014534FEA0432019C43EA0603A4F10C044E
:100460000294009CCDE900B400F008F903B0BDE8A7
:10047000F08F00200146F9E72DE9F04D81EA0304F1
:1004800004F0004B21F0004514464FF0000A23F021
:10049000004150EA050220D054EA01021DD0C5F304
:1004A0000A570246C5F31303C1F31300C1F30A56FA
:1004B00040F4801543F48013A7EB0608101BD646C2
:1004C00008F2FD3873EB050002D308F1010801E0E2
:1004D00092185B41B8F1000F03DA00200146BDE835
:1004E000F08D00204FF48011064684460EE0171B65
:1004F00073EB050705D3121B63EB050306434CEAB8
:10050000010C49084FEA300092185B4150EA01079C
:10051000EDD152EA030012D082EA040083EA050119
:10052000084305D0101BAB4106D20122002306E090
:1005300000224FF0004302E06FF0010253101AEB6B
:1005400006004CEB085110EB0A0041EB0B01BDE833
:10055000F04D00F084B80EB5C10F80EAE070084499
:10056000CA07002140F233438DE80E000A460B46CD
:1005700000F084F803B000BD0EB540F233410291A3
:100580000021CDE900110A460B4600F077F803B0D0
:1005900000BD70B5C1F30A5201F000450024C1F35B
:1005A000130140F2FF3341F480119A4201DA002036
:1005B00070BD40F233439A42A2F2334203DC52420E
:1005C00000F02BF800E090402C43F1D0404270BD89
:1005D00030B50B46014600202022012409E021FA13
:1005E00002F59D4205D303FA02F5491B04FA02F510
:1005F0002844151EA2F10102F1DC30BD202A04DBE3
:10060000203A00FA02F1002070479140C2F1200325
:1006100020FA03F3194390407047202A04DB203A64
:1006200021FA02F00021704721FA02F3D040C2F112
:1006300020029140084319467047202A06DBCB1759
:10064000203A41FA02F043EAE07306E041FA02F38D
:10065000D040C2F12002914008431946704710B5BE
:10066000141E73F1000408DA401C41F100019218D5
:100670005B411A4301D120F0010010BD2DE9F04D7E
:1006800092469B4611B1B1FA81F202E0B0FA80F2D3
:1006900020329046FFF7B2FF04460F4640EA0A00B8
:1006A00041EA0B0153465A46084313D0114653EA18
:1006B000010019D0C8F140025046FFF7AEFF0546D1
:1006C0000E46504659464246FFF798FF084305D06C
:1006D000012004E020463946BDE8F08D00200543A6
:1006E00046EAE0762C4337430A986305E40AA0EB18
:1006F00008000022FD0A44EA47540A3002D50020CF
:100700000146E9E7010510196941DDE908450019CD
:100710006941BDE8F04DA2E7064C074D06E0E068F0
:1007200040F0010394E8070098471034AC42F6D338
:10073000FFF72EFD88340008A8340008FEE700000B
:10074000144810B500688000FFF705FF9FED121BED
:1007500053EC112BFFF71EFE9FED111B53EC112BD9
:10076000FFF718FE9FED101B53EC112BFFF784FED3
:10077000FFF70FFF0E49086001460E48006801F0C0
:10078000A3FD0D4C206002F0DDFD2068BDE81040A7
:1007900001F0D4BF34000020000000000000194028
:1007A0000000000000002640000000000070B7407C
:1007B000640000205C00002054000020144810B5A4
:1007C00000688000FFF7C7FE9FED121B53EC112B52
:1007D000FFF7E0FD9FED111B53EC112BFFF7DAFD46
:1007E0009FED101B53EC112BFFF746FEFFF7D1FED8
:1007F0000E49086001460E48006801F0A7FD0D4C47
:10080000206002F0ADFD2068BDE8104001F0A8BFF7
:10081000300000200000000000001940000000002F
:1008200000002640000000000070B7406800002073
:100830006000002058000020014800F0D7B80000F8
:1008400038030020014800F0D1B8000098030020D0
:1008500001681823CAB2103AB2FBF3F2054B6FF3EA
:100860000901032A9B5CC36500D9091D81650846FF
:10087000704700006834000810B5014600208B69FD
:100880008A6A4FF0C07453B1B3F5005F15D072B1EE
:10089000012A0CD0022A0AD0032A09D104E01AB195
:1008A000012A06D0022A03D1C96AC90100D5012054
:1008B00010BDC96AA142FAD010BD002AF7D0012AA2
:1008C000F2D0022AF3D0032AF3D010BD30B5046869
:1008D000256825F480252560046863608368402BC3
:1008E000036803D099600068C26030BD9A600068F8
:1008F000C16030BD704772B6FEE700000448016871
:10090000486A044A00B2106000224A627047000040
:10091000D80100200000002004480168486A044A09
:1009200000B2106000224A6270470000900100206F
:10093000000000202DE9F0410446876D00F0D8FA50
:10094000064694F835000025022806D08020606510
:1009500084F834500120BDE8F0812068016821F05E
:10096000160101602068416921F080014161206C1D
:1009700008B9A06C20B12068016821F0080101606D
:100980002068016821F0010101600CE000F0B0FA7C
:10099000801B052807D920206065032084F83500D6
:1009A00084F83450D7E720680068C007EED194F887
:1009B0005C103F208840B860012084F8350084F83E
:1009C00034500020C7E790F83510022903D0802169
:1009D000416501207047052180F8351000680168E5
:1009E00021F0010101600020704700002DE9F8436B
:1009F00004464FF00009CDF8009063484FF41651BB
:100A0000A56D0068B0FBF1F72E6894F85C10082023
:100A100000FA01F131420FD021680A6852070BD564
:100A20000A6822F004020A6094F85C108840A8600A
:100A3000606D40F00100606594F85C104FF00108B3
:100A400008FA01F0304208D021684969090604D546
:100A5000A860606D40F00200606594F85C100420AE
:100A60008840304208D021680968890704D5A86009
:100A7000606D40F00400606594F85C1010208840C0
:100A8000304218D021680968090714D5A860206889
:100A90000168490304D50068000308D5A16C07E08C
:100AA0000168C90503D4016821F008010160216CC7
:100AB00009B12046884794F85C10202088403042D5
:100AC00031D021680968C9062DD5A86094F8350091
:100AD00005282068016806D0490347D5006800034F
:100AE0001DD4616C1CE021F0160101602068416991
:100AF00021F080014161206C08B9A06C20B1206810
:100B0000016821F00801016094F85C103F208840E2
:100B1000A86084F8358084F83490216D1FE0E16B83
:100B200009B120468847606D00282BD0606DC00752
:100B300014D0052084F835002068016821F00101F7
:100B400001600098401C0090B84203D820680068FB
:100B5000C007F6D184F8358084F83490E16C002920
:100B600010D001B02046BDE8F04308470168C90530
:100B7000D5D4016821F01001016084F8358084F833
:100B80003490CCE7BDE8F883800000202DE9F041E7
:100B9000044600F0ADF906465CB1022084F8350049
:100BA000002584F834502068016821F001010160BB
:100BB0000DE00120BDE8F08100F09AF9801B0528C6
:100BC00005D920206065032084F83500F2E720680D
:100BD0000068C007F0D12268116820480140D4E9BC
:100BE00001031843D4E903363343184363691843B8
:100BF000A3691843E3691843236A18430843616AE9
:100C0000042903D1D4E90B13194308431060206869
:100C10004069666A20F0070130460E430127042828
:100C20000CD1A06A0643E06A40B12046FFF724FEDB
:100C300020B14020606584F83570BAE720684661CD
:100C40002046FFF705FE94F85C203F21914081602B
:100C5000656584F835700020ACE700003F8010F037
:100C60002DE9F0410446866D90F8340000250128F6
:100C70000DD0012084F8340094F835700020012F45
:100C800007D084F8340002252846BDE8F081022010
:100C9000FBE7022784F8357060652046FFF716FEF3
:100CA00094F85C103F208840B0602068016841F0F3
:100CB00016010160206C20B12068016841F0080134
:100CC00001602068016841F001010160DCE700007B
:100CD00070B5044600F00CF90546601C02D00448CB
:100CE0000078044400F004F9401BA042FAD370BD20
:100CF000740000202DE9F84FDFF8BCA10022012587
:100D00000AF1040B03264FF00F090BF1040E00BF8C
:100D10000B6805FA02F42340A34270D10F7907F063
:100D20000307012F01D0022F16D187684FEA42082E
:100D300006FA08FC27EA0C07D1F80CC00CFA08FCEC
:100D40004CEA070CC0F808C04768A7430C79C4F305
:100D5000001494403C4344600C79E443A4070AD057
:100D6000C4684FEA420C06FA0CF7BC438F6807FAD6
:100D70000CF72743C7600C7904F00304022C12D14E
:100D8000D40800EB840CDCF820405707FF0E09FA6A
:100D900007F824EA0804D1F8108008FA07F848EAAE
:100DA0000408CCF8208004684FEA420C06FA0CF7DD
:100DB000BC430F7907F0030707FA0CF727430760D6
:100DC0004C6814F4403F70D03C4C276847F480478F
:100DD0002760246822F0030704F480440094384C10
:100DE00007EB040CDCF8084897074FEA177809FA74
:100DF00008F7BC43334FB84202D1002724E054E047
:100E0000314FB84201D101271EE0304FB84201D125
:100E1000022719E02E4FB84201D1032714E02D4FCD
:100E2000B84201D104270FE02B4FB84201D105276A
:100E30000AE02A4FB84201D1062705E0284FB84200
:100E400001D1072700E0082707FA08F72743CCF865
:100E50000878DAF800405746D1F804C09C435FEAAE
:100E6000CC3C00D51C433C60DBF800405F46D1F829
:100E700004C09C435FEA8C3C00D51C433C60DEF818
:100E800000407746D1F804C09C435FEACC2C00D5E3
:100E90001C433C60084F0C373C68D1F804C09C43AD
:100EA0005FEA8C2C00D51C433C60521C102AFFF4D6
:100EB0002FAFBDE8F88F0000003C014044380240ED
:100EC00000300140000002400004024000080240DF
:100ED000000C0240001002400014024000180240C2
:100EE000001C02400AB1816170470904FBE7000061
:100EF0000148806870470000740000200248816843
:100F00000278114481607047740000200B4810B5CE
:100F1000016841F400710160016841F48061016081
:100F2000016841F480710160032000F06FF80F2028
:100F300000F006F800F024F8002010BD003C02404C
:100F400070B50D4D04464FF47A712878B1FBF0F07E
:100F50000A490968B1FBF0F000F00AFB48B9102C0F
:100F600007D200222146501E00F030F800206C60AD
:100F700070BD012070BD00007400002080000020C2
:100F80000A4808B5016841F480410160006800F436
:100F9000804000900548001F016841F080510160C9
:100FA000006800F08050009008BD00004438024006
:100FB000002809DB00F01F02012191404009800058
:100FC00000F1E020C0F8001170470000F0B40E4BB3
:100FD0001B680C46C3F30223C3F10705042D00D997
:100FE0000425191D072901D2002300E0DB1E01267C
:100FF00006FA05F1491E214099409E40761E164092
:101000003143F0BC01F0ECBF0CED00E0064900F00C
:10101000070208684FF6FF03184040EA0220034A1F
:1010200010430860704700000CED00E00000FA0576
:101030002DE9F0470E46050065D0DFF81481D8F899
:101040000000F7B200F00700B04207D288F8007045
:10105000D8F8000000F00700B04254D128683D4C99
:10106000810712D5400703D5206840F4E050206086
:101070002878000703D5206840F46040206020688D
:10108000A96820F0F000084320602878C0072DD020
:10109000304968680839012812D0022813D0032883
:1010A00011D00968890700292DDA216821F0030190
:1010B00001432160FFF71CFF814641F2883A0EE0B0
:1010C00009688903EFE709688901ECE7FFF710FF7A
:1010D000A0EB0901514502D90320BDE8F087206843
:1010E000696800F00C00B0EB810FEFD1D8F8001068
:1010F000404601F00701B14207D90770006800F0CF
:101100000700B04201D00120E7E72878400705D565
:101110002068E96820F4E050084320602878000740
:1011200006D52068296920F4604040EAC1002060AB
:1011300000F038F82168084AC1F30311515CC84037
:101140000649086006480068FFF7FAFE0020C4E779
:10115000003C024008380240703400088000002043
:10116000780000200448054900680968044AC1F372
:101170008221515CC840704780000020083802403E
:10118000803400080448054900680968044AC1F32E
:101190004231515CC840704780000020083802404E
:1011A00080340008154810B5006810F00C0214488F
:1011B00013D04110042A0FD0082A0ED10F4C241F3F
:1011C0002268236802F03F025B0207D52068C0F363
:1011D0008810A0FB010106E0084610BD2168C1F39C
:1011E0008811A1FB00010023FEF7EAFF2168C1F38B
:1011F0000141491C4900B0FBF1F010BD0838024024
:101200000024F4002DE9F84F04006ED02078DFF8B8
:101210004C93C007A9F104054AD009F10400016804
:10122000C1F38101012908D00068C0F381000228C0
:101230000AD1D9F80000400206D52868800337D5C6
:1012400060680028E1D033E06068B0F5803F10D0DE
:10125000B0F5A02F286810D020F4803028602868CE
:1012600020F4802028606068A8B1FFF741FE0646A0
:101270000DE0286840F48030F4E740F480202860D6
:10128000F7E700BFFFF734FE801B642873D8286897
:101290008003F7D50CE0FFF72BFE064605E000BF04
:1012A000FFF726FE801B6428F0D828688003F7D457
:1012B0002078DFF8AC8280074FF0000A3ED5A748BF
:1012C000001D016811F00C0F08D00068C0F3810008
:1012D00002280BD1D9F80000400207D42868800703
:1012E00016D5E068012800D112E033E1E068B8B11A
:1012F0000120C8F80000FFF7FBFD064605E000BF2F
:10130000FFF7F6FD801B0228C0D828688007F7D5B4
:101310002868216920F0F80040EAC10028600DE04B
:10132000C8F800A0FFF7E4FD064604E0FFF7E0FD83
:10133000801B02281FD828688007F7D42078000770
:1013400022D5864F87486169703771B101210160EC
:10135000FFF7CEFD064604E0FFF7CAFD801B02281A
:1013600009D838688007F7D50EE0C0F800A0FFF76D
:10137000BFFD064605E082E0FFF7BAFD801B0228AC
:101380007DD838688007F7D42078400768D5DFF823
:10139000CCB100270BF13C0BDBF80000C0000BD4F4
:1013A000DBF8001041F08051CBF80010DBF80000B2
:1013B000012700F0805000906B4E3068C00510D4BB
:1013C000306840F480703060FFF792FD009005E0D7
:1013D000FFF78EFD0099401A022850D83068C005EA
:1013E000F6D55E4EA0686C3601280FD0052830680F
:1013F00010D020F001003060306820F00400306030
:10140000A068B8B1FFF774FD00900FE0306840F0BD
:101410000100F4E740F004003060F7E7FFF768FDF3
:101420000099411A41F28830814266D830688007BD
:10143000F4D50EE0FFF75CFD009007E0FFF758FDE4
:101440000099411A41F28830814256D830688007AD
:10145000F4D42FB1DBF8001021F08051CBF800104C
:10146000A069C8B33D49091D0968C1F3810102297A
:101470004AD00228504607D0C8F8600000E03CE09F
:10148000FFF736FD04463BE04746C8F86000FFF72B
:101490002FFD064605E000BFFFF72AFD801B02284E
:1014A0002BD828688001F7D4D4E907010843A16A42
:1014B0002E4A490802EB0141626A41EA821108435F
:1014C00094F82C1040EA0161C9F800100120386638
:1014D000FFF70EFD044606E03EE000BFFFF708FD03
:1014E000001B022809D828688001F7D534E000BF26
:1014F000FFF7FEFC001B022802D90320BDE8F88F8D
:1015000028688001F4D427E00128F7D0D9F800003A
:10151000E26900F4800191421CD1226A00F03F018F
:10152000914217D147F6C071626A0140B1EB821F48
:1015300010D1A26A4FF0FF3300F4403103EB5202A6
:10154000B1EB024F06D194F82C1000F07060B0EBB4
:10155000016F01D00120D1E70020CFE7043802401D
:1015600000004742800E4742007000400000FFFF2D
:1015700010B5401EB0F1807F01D3012010BD4FF0A7
:10158000E02460610F21601701F02AFD0020A061B6
:1015900007202061002010BD7047704770B590F89B
:1015A0003C20012A32D0012480F83C40022280F8FD
:1015B0003D2003685A689D6822F070060A6832432D
:1015C0005A60134B02689A4214D0B2F1804F11D086
:1015D000104B9A420ED0104B9A420BD00F4B9A42AE
:1015E00008D00F4B9A4205D00E4B9A4202D00E4BB8
:1015F0009A4204D1496825F080031943916080F82C
:101600003D40002180F83C10084670BD022070BDAE
:10161000000001400004004000080040000C0040B1
:1016200000040140004001400018004010B50400D3
:1016300003D094F83D0010B107E0012010BD002058
:1016400084F83C00204600F01FF8022084F83D009A
:10165000211D206801F028F9012084F8460084F853
:101660003E0084F83F0084F8400084F8410084F88C
:10167000420084F8430084F8440084F8450084F86C
:101680003D00002010BD000008B5006811498842E7
:1016900009D11148016841F004010160006800F0BF
:1016A0000400009008BD0D498842FBD10A48001D86
:1016B000016841F4803101600068002200F480304C
:1016C000009011461820FFF781FCBDE80840182063
:1016D000FFF76EBC00080040403802400040014067
:1016E00090F83D10012901D001207047022180F8B7
:1016F0003D100168CA6842F00102CA6000681149E1
:10170000884214D0B0F1804F11D00F4988420ED0DA
:101710000E4988420BD00E49884208D00D498842B4
:1017200005D00D49884202D00C49884204D1816815
:1017300001F00701062903D0016841F001010160B1
:1017400000207047000001400004004000080040F5
:10175000000C00400004014000400140001800401F
:1017600070B5044690F83C000025012817D00126EA
:1017700084F83C60022084F83D002068826822F0F2
:10178000770222F47F4282600868502838D00DDC4E
:1017900020284FD005DC90B3102811D14AE0022058
:1017A00070BD302846D040280AD13BE060282FD0B9
:1017B00070280DD0B0F5805F03D0B0F5005F12D077
:1017C000012584F83D60002084F83C00284670BD67
:1017D000CB68D1E90121206801F0D7F82068816841
:1017E00041F0770109E0CB68D1E90121206801F0DF
:1017F000CCF82068816841F480418160E1E719E01C
:10180000CA684968206801F095F95021206806E00F
:10181000CA684968206801F09EF96021206801F0DB
:10182000BEF8CEE7CA684968206801F083F9402114
:101830002068F4E7226801461046F0E72DE9F04100
:101840000D46040003D094F83D0018B108E00120D3
:10185000BDE8F081002084F83C00204600F040F80C
:10186000022084F83D002068816844F20702914319
:101870008160211D206801F017F822689068916945
:10188000166A2B68AF69034340F20330814341EA93
:101890000721A868EF6908434FF6FC418843E968CF
:1018A00040EA0720014328692F6A000140EA073017
:1018B000084369686D6926F0AA0646EA05152943BA
:1018C00093602268906154F8460B0162012004F88D
:1018D0001F09E0752076E0762077A0750020B7E735
:1018E00070B586B0044614216846FEF7A1FC29496C
:1018F00023680024274A103902252748B3F1804F76
:101900001ED0264EB34219D1136843F00203136070
:10191000126802F0020205920A6842F001020A60AF
:10192000096801F001010591C0210091CDE9015440
:101930006946CDE9034500BFFFF7DCF906B070BD8D
:10194000136843F001031360126802F0010205926C
:101950000A6842F001020A600A6802F00102059278
:101960000A6842F002020A60096801260096CDE981
:10197000015401F00201CDE9046103946946FFF7C7
:10198000B9F908200090CDE90154CDE90346694634
:101990000348D1E740380240000002400004004004
:1019A0000004024070B590F83E60044690F83F5045
:1019B00090F8423090F84320022021B104290ED043
:1019C000012E1BD114E0012E18D1012B16D184F861
:1019D0003E0084F8420001220021206820E0012D11
:1019E0000CD1012A0AD184F83F0084F8430014E0A6
:1019F000012D03D1012B01D1012A01D0012070BD9D
:101A000084F83E0084F83F0084F8420084F84300E4
:101A100001220021206800F0ABFF01220421206890
:101A200000F0A6FF2068016841F00101016000207C
:101A300070BD704770B50446006801694FF000053D
:101A4000C943890715D4C168C943890711D4E91E60
:101A5000016101202077206880698007204602D03C
:101A6000FFF7E7FF04E000F0C3F8204600F055F967
:101A7000257720680169C943490717D4C168C9435C
:101A8000490713D46FF00401016102202077206818
:101A9000806910F4407F204602D0FFF7CAFF04E0BF
:101AA00000F0A6F8204600F038F925772068016993
:101AB000C943090716D4C168C943090712D46FF096
:101AC00008010161042020772068C0698007204652
:101AD00002D0FFF7AEFF04E000F08AF8204600F0E5
:101AE0001CF9257720680169C943C90617D4C16864
:101AF000C943C90613D46FF0100101610820207793
:101B00002068C06910F4407F204602D0FFF791FFA3
:101B100004E000F06DF8204600F0FFF8257720681B
:101B20000169C943C90708D1C168C943C90704D1BC
:101B3000891E0161204600F055F920680169C943FA
:101B4000090609D4C168C943090605D46FF08001AC
:101B500001612046FFF720FD20680169C94349065D
:101B600009D4C168C943490605D46FF04001016139
:101B7000204600F038F920680169C94389060BD472
:101B8000C168C943890607D46FF02001016120466E
:101B9000BDE87040FFF701BD70BD000010B586B014
:101BA000044614216846FEF743FB0E49206888422C
:101BB00015D10D480021026842F008020260006859
:101BC00000F0080005904FF4405000900220CDE94D
:101BD00001010390049069460448FFF78BF806B0B2
:101BE00010BD00000008004030380240000C0240E8
:101BF000704770B5044690F83C0000260D46012859
:101C00000FD0012084F83C006AB1042A1DD0082AB4
:101C10002FD00C2A3FD00126002084F83C0030460B
:101C200070BD022070BD206800F0C2FE206881698E
:101C300041F0080181612068816921F0040181611E
:101C4000206881692A69114311E0206800F0E0FEF4
:101C50002068816941F4006181612068816921F413
:101C600080618161206881692A6941EA022181617C
:101C7000D2E7206800F002FF2068C16941F0080146
:101C8000C1612068C16921F00401C1612068C16996
:101C90002A69114311E0206800F024FF2068C1691F
:101CA00041F40061C1612068C16921F48061C161B2
:101CB0002068C1692A6941EA0221C161ACE710B517
:101CC000040003D094F83D0010B107E0012010BDDE
:101CD000002084F83C00204600F01EF8022084F822
:101CE0003D00211D206800F0DFFD012084F8460042
:101CF00084F83E0084F83F0084F8400084F84100F6
:101D000084F8420084F8430084F8440084F84500D5
:101D100084F83D00002010BD7047704710B50446A0
:101D2000022249B104290ED0082913D094F84100A9
:101D3000012816D0012010BD94F83E000128F9D1E9
:101D400084F83E200FE094F83F000128F2D184F897
:101D50003F2008E094F840000128EBD184F84020AF
:101D600001E084F841200122206800F001FE1649BC
:101D70002068164A884201D0904203D1436C43F454
:101D8000004343642068884213D0B0F1804F10D0E4
:101D90000F4988420DD00F4988420AD00E49884227
:101DA00007D0904205D00D49884202D00C498842A4
:101DB00004D1816801F00701062903D0016841F0D0
:101DC00001010160002010BD00000140000401403D
:101DD0000004004000080040000C004000400140AA
:101DE000001800407047704770477047F8B50168A9
:101DF00004460868CA684B6910F00F0F4FF00005E1
:101E00005AD003F0010602F49077374365D0C1073A
:101E100005D0D10503D5216C41F0010121644107B2
:101E200005D5D90703D0216C41F002012164810757
:101E300005D5D90703D0216C41F0040121640107C5
:101E400007D502F02001314303D0216C41F0080195
:101E50002164216C00293BD0800604D5900602D570
:101E6000204600F03AFF20684069216CC0F38010E2
:101E700001F00801014320462BD000F0F9FE206854
:101E80004069400621D52068143050E8001F21F039
:101E9000400140E80012002AF5D1A06BA8B16C49BE
:101EA0000165A06BFEF78FFD002811D0A06B016DBE
:101EB00001B0BDE8F040084783060ED593060CD567
:101EC0002046BDE8F84000F008BF2046FFF78DFF30
:101ED000F8BDFFF78AFF2564F8BD266B2023012E8D
:101EE00079D1C60677D5D60675D5086848680090BA
:101EF0004869400640D5A16B086840680004000CA2
:101F0000EAD0A28D8242E7D9E085C869B0F5807F2A
:101F10002DD020680C3050E8001F21F4807140E87B
:101F20000012002AF5D12068143050E8001F21F07B
:101F3000010140E80012002AF5D12068143050E871
:101F4000001F21F0400140E80012002AF5D184F87A
:101F50003E30256320680C3050E8001F21F010014E
:101F600040E80012002AF5D1A06BFEF7E3FCA08D3B
:101F7000E18D401A81B229E0A08DE18D401A81B235
:101F8000E08D0028A8D00029A6D020680C3050E8A9
:101F9000002F22F4907240E80026002EF5D1206830
:101FA000143050E8002F22F0010240E80026002EF5
:101FB000F5D184F83E30256320680C3050E8002FBE
:101FC00022F0100240E80023002BF5D12046FFF755
:101FD0000BFFF8BDFFE705062BD5150629D594F8AC
:101FE0003D002128F5D1A068B0F5805F01D12069BE
:101FF000B0B1206A411C2162216800784860E08C01
:10200000401E0004000CE084E3D12068C16821F088
:102010008001C1602068C16841F04001C160D8E71B
:10202000206A0088C0F308004860206A801C206293
:10203000E5E74006CDD55006CBD5CA68204622F04C
:102040004002CA6084F83D3000F03BF9C1E700006F
:102050007B2B000870B5040004D094F83D000025E7
:1020600010B106E0012070BD84F83C50204600F01D
:1020700023F8242084F83D002068C16821F4005131
:10208000C160204600F08AFE2068016921F4904179
:1020900001612068416921F02A0141612068C1681D
:1020A00041F40051C1602564202084F83D0084F88B
:1020B0003E00002070BD00002DE9F04186B00646CC
:1020C00014216846FEF7B4F83E4F31683E480222BC
:1020D000032307250024B9421DD13B4914310E6862
:1020E00046F010060E60096801F0100105910168C4
:1020F00041F0010101600068694600F001000590AF
:1021000058028DE81500CDE903353048FEF7F2FDA1
:1021100006B0BDE8F0812E4FB942F9D12A491031FD
:102120000F6847F400370F60096801F4003105912A
:10213000016841F0080101600068694600F008008C
:10214000059060208DE81500CDE903352148FEF7A4
:10215000D1FD224D20484FF000672860C5E9017489
:102160004FF48068C5E903486C61AC61EC612C6296
:1021700028466C62FEF70AFD08B1FEF7BCFBB563AA
:10218000AE63164D144860351830E5E8020740206C
:10219000A5E81101114845F814496030AC61EC61C3
:1021A0002C626C62FEF7F2FC08B1FEF7A4FB7563CB
:1021B000002211462620AE63FEF708FF2620FEF718
:1021C000F7FEA5E700100140303802400000024051
:1021D00000440040000C02408860024038030020A8
:1021E00090F83E30202B0ED159B152B190F83C30CE
:1021F000012B08D0012380F83C300023036300F05A
:1022000053BE01207047022070477047704700009E
:102210002DE9F843044690F83D001F4616460D464A
:1022200020284CD1C5B1BEB194F83C00012846D05D
:10223000012084F83C004FF00008C4F840802120C1
:1022400084F83D00FEF754FEA6848146E684A0682B
:10225000B0F5805F03D004E00120BDE8F883206979
:1022600028B12E465FF0000584F83C800EE0002681
:10227000FAE78021204600F05FFEA0B9AEB116F863
:10228000010B21684860E08C401EE084E08C4B46E6
:102290004FF0000200970028EBD14FF0400120469C
:1022A00000F04AFE30B10320D7E735F8020BC0F347
:1022B0000800E6E7202084F83D000020CDE702205A
:1022C000CBE77047FEE70000081A00EE100A1B4932
:1022D00000B5B8EEC00A81ED060A00F0F7FF91EDF7
:1022E000060A91ED011A1648B0EE002A70EE410A76
:1022F000D0ED001A134860EEA10AD0ED001A124882
:1023000041EE800AF0EE401A41EE421A91ED021AB7
:1023100031EE811AD0ED001A41EE810A91ED001ADA
:1023200070EE810AC1ED000A81ED010A81ED020A19
:10233000BDEEE00A10EE100A00BD0000040000200F
:102340004C000020500000206C000020081A00EE15
:10235000100A1B4900B5B8EEC00A81ED070A00F06B
:10236000D3FF91ED070A91ED041A1648B0EE002A4A
:1023700070EE410AD0ED001A134860EEA10AD0EDCC
:10238000001A124841EE800AF0EE401A41EE421A5D
:1023900091ED051A31EE811AD0ED001A41EE810A55
:1023A00091ED031A70EE810AC1ED030A81ED040A72
:1023B00081ED050ABDEEE00A10EE100A00BD000036
:1023C000040000204C000020500000206C00002081
:1023D00010B50C4C01280DD0002812D10122022189
:1023E0002046FEF77FFD00222046BDE81040042174
:1023F000FEF778BD002202212046FEF773FD012280
:10240000F2E710BD000002400D4808B5016841F434
:10241000001101600068002200F4001000901146D5
:102420001020FEF7D3FD1020FEF7C2FD002211465A
:102430001120FEF7CBFDBDE808401120FEF7B8BD26
:102440003038024030B587B014216846FDF7F0FE01
:1024500019480024016841F080010160016801F021
:1024600080010591016841F001010160016801F0FE
:1024700001010591016841F008010160016801F066
:1024800008010591016841F00201016000680B4DEF
:1024900000F00200059000221E212846FEF722FDD2
:1024A0001E2000900120CDE90104694628460394CE
:1024B000FEF720FC07B030BD30380240000002407B
:1024C00010B58CB024216846FDF7B2FE00241548F3
:1024D00009944FF080410A94C0E90014611EC0E9DC
:1024E0000241046184610320CDE900040120CDE9AB
:1024F00002040A210491CDE90540CDE9074169466E
:102500000848FFF79BF908B1FEF7F5F9099409A906
:1025100004480A94FFF742F8002801D0FEF7EBF9CF
:102520000CB010BD9001002010B58CB0242168467D
:10253000FDF77EFE00241648099414490A94C0E968
:1025400000144FF6FF71C0E9024104618461032069
:10255000CDE900040120CDE902040A210491CDE96E
:102560000540CDE9074169460948FFF767F908B119
:10257000FEF7C1F9099409A905480A94FFF70EF876
:10258000002801D0FEF7B7F90CB010BD00040040E0
:10259000D801002010B58EB0002407940894099447
:1025A0000A940B941C2168460C94FDF741FE2248C6
:1025B00020490160A721C0E901146321C0E9031487
:1025C00080218161FFF732F808B1FEF794F94FF4EA
:1025D0008050079007A91848FFF7C2F808B1FEF726
:1025E0008AF91548FFF76BFB08B1FEF784F90B94E5
:1025F0000BA911480C94FEF7D1FF08B1FEF77BF947
:102600006020CDE900040294002269460A4804943F
:10261000FFF7EFFA08B1FEF76EF9042269460648A3
:10262000FFF7E7FA08B1FEF766F90348FFF7B6FAD5
:102630000EB010BD00080040200200201FB5002190
:1026400010480091019102910D4A0391026044F2F9
:102650009F12C0E901216422C0E903218161FEF7D4
:10266000E5FF08B1FEF747F94FF480500090694646
:102670000448FFF775F8002801D0FEF73CF91FBDAC
:1026800000400140680200200C4810B50A49016072
:102690004FF4E1314160002181600C22C160C0E94A
:1026A00004128161C161FFF7D5FC002803D0BDE8A9
:1026B0001040FEF720B910BD00100140B00200200C
:1026C0000C4810B50A4901604FF4E1314160002126
:1026D00081600C22C160C0E904128161C161FFF711
:1026E000B9FC002803D0BDE81040FEF704B910BDC6
:1026F00000440040F4020020FEE7FEE770470000BF
:1027000010B50C4C01280DD0002812D1012208214F
:102710002046FEF7E7FB00222046BDE810401021CE
:10272000FEF7E0BB002208212046FEF7DBFB01227A
:10273000F2E710BD000002407047000010B5040031
:1027400001D5002000E00120FFF742FE204600F006
:102750007BFE02490968486310BD0000200200208A
:1027600010B5040001D5002000E00120FFF7C8FFEC
:10277000204600F069FE02490968886310BD000028
:1027800020020020FEF7BABB30B593B03021684676
:10279000FDF74EFD14210CA8FDF74AFD1D4800254C
:1027A000016841F080510160006800F08050119094
:1027B0001948016841F4804101600068022400F476
:1027C0008040119001200390102004900094069402
:1027D0000820CDE90750A820CDE9090404200B907A
:1027E0006846FEF70FFD08B172B6FEE70CA90F2090
:1027F00081E831004FF4A0500F904FF480501090BA
:1028000005210CA8FEF714FC002801D072B6FEE7E3
:1028100013B030BD403802400070004002480168EB
:1028200041F470010160704788ED00E010B50D487B
:10283000FFF700F9FEF770F80B490860FEF75EF845
:102840000A4908600A4801680AA000F0B9FB0F486D
:1028500001680FA000F0B4FBFDF772FFBDE8104067
:10286000FDF7ACBF68020020600000205C00002083
:10287000300000207461726765745F72706D5F7202
:10288000696768743D25640A0A200000340000204E
:102890007461726765745F72706D5F6C6566743DBC
:1028A00025640A0A20000000F0B50268254C264D78
:1028B000264E274F274B4FF0804CA04209D0604551
:1028C00007D0A84205D0B04203D0B84201D0984208
:1028D00004D122F0700E4A6842EA0E02A0421BD0D8
:1028E000604519D0A84217D0B04215D0B84213D0D5
:1028F000984211D0184DA8420ED0184DA8420BD0C6
:10290000174DA84208D0174DA84205D0164DA84231
:1029100002D0164DA84203D122F44075CA682A435A
:102920004D6922F080022A4302608A68C2620A6806
:102930008262A04201D0984201D10969016301215C
:102940004161F0BD0000014000040040000800406B
:10295000000C0040000401400040014000440140E0
:102960000048014000180040001C004000200040CA
:1029700010B501F01F030121046A99408C430462E1
:10298000016A9A401143016210BD10B5846842EAA1
:10299000032224F47F440A432243826010BD8268EC
:1029A00022F070020A4342F0070181607047000084
:1029B000F0B5026A22F001020262036A4268846989
:1029C000124E24F073050C682C4323F002058B682B
:1029D0002B430D4DA84201D0B04205D123F008078A
:1029E000CB683B4323F00403A84201D0B04205D199
:1029F0004D6922F4407215438A692A43426084611A
:102A0000496841630362F0BD0000014000040140D9
:102A1000F0B5026A22F010020262026A4368846919
:102A20000D6824F4E64444EA05248D6822F020026F
:102A300042EA05120F4D104EA84201D0B04206D115
:102A4000CF6822F0800242EA071222F04002A84238
:102A500001D0B04207D14D6923F4406343EA8503B6
:102A60008D6943EA8503436084614968816302623A
:102A7000F0BD00000000014000040140F0B5026A12
:102A800022F480720262026A4368C46922F400720E
:102A900024F073050C68124E2C438D6842EA05221F
:102AA0000E4DA84201D0B04206D1CF6822F4006298
:102AB00042EA072222F48062A84201D0B04207D144
:102AC0004D6923F4405343EA05138D6943EA051326
:102AD0004360C4614968C1630262F0BD0000014007
:102AE0000004014030B5026A22F480520262046A96
:102AF0004268C3690D6823F4E64343EA05238D6801
:102B000024F4005444EA0534084DA84202D0084D8C
:102B1000A84204D14D6922F4804242EA8512426003
:102B2000C36149680164046230BD000000000140D7
:102B30000004014010B5036A046A24F00104046231
:102B4000846924F0F00444EA021423F00A020A43E0
:102B50008461026210BD10B5036A23F010030362A2
:102B60008369046A23F4704343EA023224F0A00329
:102B700043EA01118261016210BD10B5806B002132
:102B8000C185C184FFF731F910BD70B5846B206831
:102B9000406994F83D10C0F3C0100025212904D1EC
:102BA00018B1E584204600F08AF82068406994F85E
:102BB0003E10C0F38010222904D118B1E5852046CB
:102BC00000F056F8206C40F0100020642046FFF71B
:102BD0000CF970BD10B50146806B09680968C9051C
:102BE0002FD40021C18501680C3151E8002F22F457
:102BF000807241E80023002BF5D10168143151E8BF
:102C0000002F22F0010241E80023002BF5D10168DA
:102C1000143151E8002F22F0400241E80023002B3C
:102C2000F5D1202180F83E10016B012909D10168FE
:102C30000C3151E8002F22F0100241E80023002B54
:102C4000F5D1016B012902D0FFF7DFFA10BD818DAC
:102C5000FFF7CAF810BD10B5806B016B012902D0D7
:102C6000FFF7D4FA10BD818D4908FFF7BDF810BDFC
:102C700001680C3151E8002F22F4907241E80023E2
:102C8000002BF5D10168143151E8002F22F0010228
:102C900041E80023002BF5D1016B012909D101681E
:102CA0000C3151E8002F22F0100241E80023002BE4
:102CB000F5D1202180F83E100021016370470168A2
:102CC0000C3151E8002F22F0C00241E80023002B14
:102CD000F5D1202180F83D10704708B590F83E10DE
:102CE000222901D0022008BD82684FF480539A4205
:102CF00001D1016921B1816A9A421BD04AB10AE02F
:102D00000268816A5268C2F308020A80816A891CDB
:102D100008E0026972B10268526802F07F020A702C
:102D2000816A491C8162C18D491E0904090CC18553
:102D300003D019E002685268F1E70168CA6822F01E
:102D40002002CA600168CA6822F48072CA60016801
:102D50004A6922F001024A61202180F83E10016B8D
:102D6000012903D0FFF751FA002008BD00210163BB
:102D700001680C3151E8002F22F0100241E80023D5
:102D8000002BF5D101680A68D20602D50A684968A5
:102D90000091818DFFF728F8E6E7000070B5044642
:102DA00000680169E26821F4405111430161216921
:102DB000A068E26908436169114308432168CA6851
:102DC00049F20C639A430243CA6020684169A269D0
:102DD00021F440711143416131492068884202D099
:102DE0003049884202D1FEF7CDF901E0FEF7BAF989
:102DF000E2690023192164253226B2F5004F62688A
:102E000028D0A0FB0101930F9200FDF7D9F90146EC
:102E1000B0FBF5F06FF01802504301EB800006EBB9
:102E20000010B0FBF5F000F0F002B1FBF5F002EBA2
:102E30000012B1FBF5F06FF01803584301EB80006E
:102E400006EB0010B0FBF5F000F00F002168104415
:102E5000886070BDA0FB010192185B41FDF7B0F9DD
:102E60000146B0FBF5F00201B1FBF5F06FF018037D
:102E7000584301EB800006EBC000B0FBF5F000F01A
:102E8000F80002EB4002B1FBF5F0584301EB800083
:102E900006EBC000B0FBF5F000F00700D6E700003D
:102EA000001001400014014038B581628285002580
:102EB000134604460564222084F83E00A26B1B489A
:102EC000D063A26B1A481064A26B1A48D064A06B3E
:102ED0000A4605652168A06B091DFDF7C1FE206843
:102EE00001684068009084F83C5020680C3050E83D
:102EF000001F41F4807140E80012002AF5D12068DB
:102F0000143050E8001F41F0010140E80012002A8F
:102F1000F5D12068143050E8001F41F0400140E82E
:102F20000012002AF5D1002038BD0000D52B000882
:102F3000572C00088B2B00082DE9F04198461746C6
:102F40000E460446069D27E0681C25D02DB1FDF7EE
:102F5000CFFFA0EB0800A8421ED920680C3050E833
:102F6000001F21F4D07140E80012002AF5D120683A
:102F7000143050E8001F21F0010140E80012002A3F
:102F8000F5D1202084F83D0084F83E00002084F82C
:102F90003C000320BDE8F0812068006836EA0000AC
:102FA00004D00020B842CFD00020F3E70120F9E799
:102FB0000148FEF71BBF0000F4020020FEE70000FE
:102FC0000FB4054B10B503A9044A029800F028F885
:102FD00010BC5DF814FB0000B53200087000002042
:102FE0000907090E002804DB00F1E02080F8001436
:102FF000704700F00F0000F1E02080F8141D7047CA
:1030000002E008C8121F08C1002AFAD170477047B1
:10301000002001E001C1121F002AFBD1704700000F
:103020002DE9FF4F89B09B460446002506E0252880
:103030000BD05A460B999047641C6D1C20780028D1
:10304000F5D10DB02846BDE8F08F0027B846012223
:10305000474900E0074314F8013F203B02FA03F020
:103060000842F7D120782E2819D114F8010F47F023
:1030700004072A280ED06FF02F022078A0F130012B
:1030800009290CD808EB880102EB410100EB01088B
:10309000641CF2E70A98641C50F8048B0A902078AC
:1030A0000028CED0642808D0692806D075281ED004
:1030B0005A460B9990476D1C58E00A994FF00A093F
:1030C00001C90A91002802DA40422D2102E03905A7
:1030D00004D52B218DF82010012103E0F90704D03D
:1030E0002021F7E78A4608AE0DE00021FAE70A99A9
:1030F0004FF00A0901C90A91F7E74946FDF768FA56
:10310000303106F8011D0028F7D1ADEB060000F1C3
:103110002009780701D44FF00108C84502DDA8EB6B
:10312000090000E000208046002706E008A85A4673
:10313000C05D0B9990476D1C7F1C5745F6DB04E082
:1031400030205A460B9990476D1CB8F10001A8F148
:103150000108F5DC05E016F8010B5A460B9990477B
:103160006D1CB9F10001A9F10109F4DC641C65E7EB
:103170000928010010B50B4C002202212046FDF762
:10318000B1FE012204212046FDF7ACFE00220821F9
:103190002046FDF7A7FE20460122BDE81040102181
:1031A000FDF7A0BE000002402DE9F0413D4D3E4C30
:1031B0002DED048B287A59286AD168689FED3B8BE6
:1031C000002834DA46423046FDF7C5F953EC182B97
:1031D000FDF7E0F841EC190B6069FDF7CDF9884681
:1031E00048EC100B074653EC192B51EC100BFDF774
:1031F000CBF8FDF7CEF9A0603046FDF7ACF953EC03
:10320000182BFDF7C7F841EC100B48EC117B53EC81
:10321000102B51EC110BFDF716F8FDF7BAF96060B1
:1032200000F0ACF800F0BAF86868002830DB064619
:10323000FDF791F953EC182BFDF7ACF841EC190BA5
:103240006069FDF799F9884648EC100B074653EC86
:10325000192B51EC100BFDF797F8FDF79AF9606008
:103260003046FDF778F953EC182BFDF793F841EC55
:10327000100B48EC117B53EC102B51EC110BFCF7AD
:10328000E2FFFDF786F9A06000F078F800F086F81C
:10329000287A4E2802D100202061E060BDEC048B2A
:1032A000BDE8F0818401002024000020000000001F
:1032B0000000D03F13B54FF47A73012269460248EB
:1032C000FEF7A6FF00981CBDB00200200B489FED42
:1032D0000C0AD0ED060AF4EEC00AF1EE10FA01D2A3
:1032E00080ED060AD0ED060A9FED060AF4EEC00A4C
:1032F000F1EE10FA01DD80ED060A704704000020AF
:10330000000096C3000096430B489FED0C0AD0EDD9
:10331000070AF4EEC00AF1EE10FA01D280ED070AB6
:10332000D0ED070A9FED060AF4EEC00AF1EE10FA9E
:1033300001DD80ED070A704704000020000096C3FD
:10334000000096430548642253420168994201DA1D
:10335000036070476429FCDD026070475400002060
:103360000548642253420168994201DA03607047BC
:103370006429FCDD026070475800002006484FF4C5
:103380002F72534281680161994201DA03617047EB
:103390009142FCDD026170472400002006484FF492
:1033A0002F7253424168C160994201DAC36070478D
:1033B0009142FCDDC260704724000020FDF7A6FDAD
:1033C000FFF7E2F9FFF73EF8FFF71EF8FFF7E2F824
:1033D000FFF776F8FFF758F9FFF730F9FFF7A4F891
:1033E000FFF76EF93C211148FEF7DCFA3C2110484A
:1033F000FEF7D8FA00210F48FEF790FC04210D4893
:10340000FEF78CFCFFF7B6FE0B48FEF769F90B4C94
:103410000B49208882B20B48FEF7E2FE00F018F854
:10342000FFF7C2FE0F20FDF753FCF1E790010020EB
:10343000D801002020020020680200202400002083
:1034400084000020F4020020002800DA4042704787
:10345000044800F58071D0F801204A604079087274
:1034600070470000840000200006101600061016A9
:103470000000000000000000010203040607080924
:103480000000000001020304A8340008000000202E
:1034900084000000003000082C3500088400002063
:1034A0007407000010300008000000000000000059
:1034B000000000000000000000000000000000000C
:1034C00000000000000000000000000007000000F5
:1034D00000000000000000000000000000000000EC
:1034E0009600000000000000000000000000000046
:1034F000000000009A99193F8FC2753D000000003E
:1035000000000000000000000000000000000000BB
:1035100000000000000000000000000001000000AA
:0C35200010000000000000000024F40077
:040000050800018965
:00000001FF
